{
  "address": "0xa5B9E7b0A6959cA542801d4168ac2ff07c1374a9",
  "abi": [
    {
      "inputs": [
        {
          "internalType": "address",
          "name": "_tokenAddress",
          "type": "address"
        },
        {
          "internalType": "address[]",
          "name": "_recipients",
          "type": "address[]"
        },
        {
          "internalType": "uint256[]",
          "name": "_ids",
          "type": "uint256[]"
        },
        {
          "internalType": "uint256[]",
          "name": "_values",
          "type": "uint256[]"
        }
      ],
      "name": "sendERC1155",
      "outputs": [],
      "stateMutability": "nonpayable",
      "type": "function"
    },
    {
      "inputs": [
        {
          "internalType": "address",
          "name": "_tokenAddress",
          "type": "address"
        },
        {
          "internalType": "address[]",
          "name": "_recipients",
          "type": "address[]"
        },
        {
          "internalType": "uint256[]",
          "name": "_values",
          "type": "uint256[]"
        }
      ],
      "name": "sendERC20",
      "outputs": [],
      "stateMutability": "nonpayable",
      "type": "function"
    },
    {
      "inputs": [
        {
          "internalType": "address",
          "name": "_tokenAddress",
          "type": "address"
        },
        {
          "internalType": "address[]",
          "name": "_recipients",
          "type": "address[]"
        },
        {
          "internalType": "uint256[]",
          "name": "_ids",
          "type": "uint256[]"
        }
      ],
      "name": "sendERC721",
      "outputs": [],
      "stateMutability": "nonpayable",
      "type": "function"
    },
    {
      "inputs": [
        {
          "internalType": "address payable[]",
          "name": "_recipients",
          "type": "address[]"
        },
        {
          "internalType": "uint256[]",
          "name": "_values",
          "type": "uint256[]"
        }
      ],
      "name": "sendETH",
      "outputs": [],
      "stateMutability": "payable",
      "type": "function"
    }
  ],
  "transactionHash": "0x419e6e66676fbb288ea816ea1edb558860f2d908c045dffa74139b29241b31ec",
  "args": [],
  "numDeployments": 2,
  "solcInputHash": "609d73c918800114b5ddff503d117a69",
  "bytecode": "0x60a06040819052600060808190526200001991816200002e565b503480156200002757600080fd5b5062000111565b8280546200003c90620000d4565b90600052602060002090601f016020900481019282620000605760008555620000ab565b82601f106200007b57805160ff1916838001178555620000ab565b82800160010185558215620000ab579182015b82811115620000ab5782518255916020019190600101906200008e565b50620000b9929150620000bd565b5090565b5b80821115620000b95760008155600101620000be565b600181811c90821680620000e957607f821691505b602082108114156200010b57634e487b7160e01b600052602260045260246000fd5b50919050565b610ec580620001216000396000f3fe60806040526004361061003f5760003560e01c806315f67ddf14610044578063bc021c0114610066578063cb39346514610086578063e096e66a14610099575b600080fd5b34801561005057600080fd5b5061006461005f366004610acc565b6100b9565b005b34801561007257600080fd5b50610064610081366004610b4f565b61022b565b610064610094366004610bfc565b6103fc565b3480156100a557600080fd5b506100646100b4366004610acc565b610665565b8281146101335760405162461bcd60e51b815260206004820152602b60248201527f4d756c746953656e6465723a205f726563697069656e747320616e64205f696460448201527f73206e6f7420657175616c00000000000000000000000000000000000000000060648201526084015b60405180910390fd5b8460005b8481101561022257816001600160a01b03166342842e0e3388888581811061016157610161610c68565b90506020020160208101906101769190610c7e565b87878681811061018857610188610c68565b6040517fffffffff0000000000000000000000000000000000000000000000000000000060e088901b1681526001600160a01b03958616600482015294909316602485015250602090910201356044820152606401600060405180830381600087803b1580156101f757600080fd5b505af115801561020b573d6000803e3d6000fd5b50505050808061021a90610c9b565b915050610137565b50505050505050565b8481146102a05760405162461bcd60e51b815260206004820152602e60248201527f4d756c746953656e6465723a205f726563697069656e747320616e64205f766160448201527f6c756573206e6f7420657175616c000000000000000000000000000000000000606482015260840161012a565b8483146103155760405162461bcd60e51b815260206004820152602b60248201527f4d756c746953656e6465723a205f726563697069656e747320616e64205f696460448201527f73206e6f7420657175616c000000000000000000000000000000000000000000606482015260840161012a565b8660005b868110156103f157816001600160a01b031663f242432a338a8a8581811061034357610343610c68565b90506020020160208101906103589190610c7e565b89898681811061036a5761036a610c68565b9050602002013588888781811061038357610383610c68565b9050602002013560006040518663ffffffff1660e01b81526004016103ac959493929190610ce2565b600060405180830381600087803b1580156103c657600080fd5b505af11580156103da573d6000803e3d6000fd5b5050505080806103e990610c9b565b915050610319565b505050505050505050565b8281146104715760405162461bcd60e51b815260206004820152602e60248201527f4d756c746953656e6465723a205f726563697069656e747320616e64205f766160448201527f6c756573206e6f7420657175616c000000000000000000000000000000000000606482015260840161012a565b60005b8381101561059657600085858381811061049057610490610c68565b90506020020160208101906104a59190610c7e565b6001600160a01b03168484848181106104c0576104c0610c68565b9050602002013560405160006040518083038185875af1925050503d8060008114610507576040519150601f19603f3d011682016040523d82523d6000602084013e61050c565b606091505b50509050806105835760405162461bcd60e51b815260206004820152602160248201527f4d756c746953656e6465723a204661696c656420746f2073656e64204574686560448201527f7200000000000000000000000000000000000000000000000000000000000000606482015260840161012a565b508061058e81610c9b565b915050610474565b5047801561065e57604051600090339083908381818185875af1925050503d80600081146105e0576040519150601f19603f3d011682016040523d82523d6000602084013e6105e5565b606091505b505090508061065c5760405162461bcd60e51b815260206004820152602660248201527f4d756c746953656e6465723a204661696c656420746f2073656e64204574686560448201527f72206261636b0000000000000000000000000000000000000000000000000000606482015260840161012a565b505b5050505050565b8281146106da5760405162461bcd60e51b815260206004820152602e60248201527f4d756c746953656e6465723a205f726563697069656e747320616e64205f766160448201527f6c756573206e6f7420657175616c000000000000000000000000000000000000606482015260840161012a565b8460005b8481101561022257610744338787848181106106fc576106fc610c68565b90506020020160208101906107119190610c7e565b86868581811061072357610723610c68565b90506020020135856001600160a01b0316610756909392919063ffffffff16565b8061074e81610c9b565b9150506106de565b604080516001600160a01b0385811660248301528416604482015260648082018490528251808303909101815260849091019091526020810180517bffffffffffffffffffffffffffffffffffffffffffffffffffffffff167f23b872dd000000000000000000000000000000000000000000000000000000001790526107de9085906107e4565b50505050565b6000610839826040518060400160405280602081526020017f5361666545524332303a206c6f772d6c6576656c2063616c6c206661696c6564815250856001600160a01b03166108ce9092919063ffffffff16565b8051909150156108c957808060200190518101906108579190610dd4565b6108c95760405162461bcd60e51b815260206004820152602a60248201527f5361666545524332303a204552433230206f7065726174696f6e20646964206e60448201527f6f74207375636365656400000000000000000000000000000000000000000000606482015260840161012a565b505050565b60606108dd84846000856108e7565b90505b9392505050565b60608247101561095f5760405162461bcd60e51b815260206004820152602660248201527f416464726573733a20696e73756666696369656e742062616c616e636520666f60448201527f722063616c6c0000000000000000000000000000000000000000000000000000606482015260840161012a565b6001600160a01b0385163b6109b65760405162461bcd60e51b815260206004820152601d60248201527f416464726573733a2063616c6c20746f206e6f6e2d636f6e7472616374000000604482015260640161012a565b600080866001600160a01b031685876040516109d29190610e22565b60006040518083038185875af1925050503d8060008114610a0f576040519150601f19603f3d011682016040523d82523d6000602084013e610a14565b606091505b5091509150610a24828286610a2f565b979650505050505050565b60608315610a3e5750816108e0565b825115610a4e5782518084602001fd5b8160405162461bcd60e51b815260040161012a9190610e3e565b6001600160a01b0381168114610a7d57600080fd5b50565b60008083601f840112610a9257600080fd5b50813567ffffffffffffffff811115610aaa57600080fd5b6020830191508360208260051b8501011115610ac557600080fd5b9250929050565b600080600080600060608688031215610ae457600080fd5b8535610aef81610a68565b9450602086013567ffffffffffffffff80821115610b0c57600080fd5b610b1889838a01610a80565b90965094506040880135915080821115610b3157600080fd5b50610b3e88828901610a80565b969995985093965092949392505050565b60008060008060008060006080888a031215610b6a57600080fd5b8735610b7581610a68565b9650602088013567ffffffffffffffff80821115610b9257600080fd5b610b9e8b838c01610a80565b909850965060408a0135915080821115610bb757600080fd5b610bc38b838c01610a80565b909650945060608a0135915080821115610bdc57600080fd5b50610be98a828b01610a80565b989b979a50959850939692959293505050565b60008060008060408587031215610c1257600080fd5b843567ffffffffffffffff80821115610c2a57600080fd5b610c3688838901610a80565b90965094506020870135915080821115610c4f57600080fd5b50610c5c87828801610a80565b95989497509550505050565b634e487b7160e01b600052603260045260246000fd5b600060208284031215610c9057600080fd5b81356108e081610a68565b60007fffffffffffffffffffffffffffffffffffffffffffffffffffffffffffffffff821415610cdb57634e487b7160e01b600052601160045260246000fd5b5060010190565b60006001600160a01b03808816835260208188168185015286604085015285606085015260a0608085015260009150845482600182811c915080831680610d2a57607f831692505b848310811415610d4857634e487b7160e01b86526022600452602486fd5b60a0880183905260c08801818015610d675760018114610d9657610dc1565b7fffffffffffffffffffffffffffffffffffffffffffffffffffffffffffffff00861682528682019750610dc1565b60008b81526020902060005b86811015610dbb57815484820152908501908801610da2565b83019850505b50959d9c50505050505050505050505050565b600060208284031215610de657600080fd5b815180151581146108e057600080fd5b60005b83811015610e11578181015183820152602001610df9565b838111156107de5750506000910152565b60008251610e34818460208701610df6565b9190910192915050565b6020815260008251806020840152610e5d816040850160208701610df6565b601f017fffffffffffffffffffffffffffffffffffffffffffffffffffffffffffffffe016919091016040019291505056fea2646970667358221220b9ae62a2d2fbf1148881bc77de78283f06ea81f49c2e5c034523996e9297011764736f6c634300080a0033",
  "devdoc": {
    "kind": "dev",
    "methods": {
      "sendERC1155(address,address[],uint256[],uint256[])": {
        "details": "Send token ERC20 to multiple accounts. - `_tokenAddress`: address of token erc721 - `_recipients`: list of receiver's address. - `_ids`: list of NFT's ID will be sent. - `_values`: list of values corresponding to each id"
      },
      "sendERC20(address,address[],uint256[])": {
        "details": "Send token ERC20 to multiple accounts. - `_tokenAddress`: address of token erc20 - `_recipients`: list of receiver's address. - `_values`: list of values in wei will be sent."
      },
      "sendERC721(address,address[],uint256[])": {
        "details": "Send token ERC20 to multiple accounts. - `_tokenAddress`: address of token erc721 - `_recipients`: list of receiver's address. - `_ids`: list of NFT's ID will be sent."
      },
      "sendETH(address[],uint256[])": {
        "details": "Send ETH to multiple accounts. - `_recipients`: list of receiver's address. - `_values`: list of values in wei will be sent."
      }
    },
    "version": 1
  },
  "userdoc": {
    "kind": "user",
    "methods": {},
    "version": 1
  },
  "storageLayout": {
    "storage": [
      {
        "astId": 4438,
        "contract": "contracts/MultiSender.sol:MultiSender",
        "label": "emptyData",
        "offset": 0,
        "slot": "0",
        "type": "t_bytes_storage"
      }
    ],
    "types": {
      "t_bytes_storage": {
        "encoding": "bytes",
        "label": "bytes",
        "numberOfBytes": "32"
      }
    }
  }
}